{
  "contractName": "FvmDidRegistry",
  "abi": [
    {
      "inputs": [],
      "stateMutability": "nonpayable",
      "type": "constructor"
    },
    {
      "anonymous": false,
      "inputs": [
        {
          "indexed": false,
          "internalType": "address",
          "name": "id",
          "type": "address"
        },
        {
          "indexed": false,
          "internalType": "string",
          "name": "doc",
          "type": "string"
        }
      ],
      "name": "DIDCreated",
      "type": "event"
    },
    {
      "anonymous": false,
      "inputs": [
        {
          "indexed": false,
          "internalType": "address",
          "name": "id",
          "type": "address"
        }
      ],
      "name": "DIDDeleted",
      "type": "event"
    },
    {
      "anonymous": false,
      "inputs": [
        {
          "indexed": false,
          "internalType": "address",
          "name": "id",
          "type": "address"
        },
        {
          "indexed": false,
          "internalType": "string",
          "name": "doc",
          "type": "string"
        }
      ],
      "name": "DIDUpdated",
      "type": "event"
    },
    {
      "anonymous": false,
      "inputs": [
        {
          "indexed": false,
          "internalType": "address",
          "name": "newOwner",
          "type": "address"
        }
      ],
      "name": "TransferOwnership",
      "type": "event"
    },
    {
      "inputs": [
        {
          "internalType": "address",
          "name": "_newOwner",
          "type": "address"
        }
      ],
      "name": "transferOwnership",
      "outputs": [
        {
          "internalType": "string",
          "name": "",
          "type": "string"
        }
      ],
      "stateMutability": "nonpayable",
      "type": "function"
    },
    {
      "inputs": [],
      "name": "getOwner",
      "outputs": [
        {
          "internalType": "address",
          "name": "_owner",
          "type": "address"
        }
      ],
      "stateMutability": "view",
      "type": "function",
      "constant": true
    },
    {
      "inputs": [
        {
          "internalType": "address",
          "name": "_id",
          "type": "address"
        },
        {
          "internalType": "string",
          "name": "_doc",
          "type": "string"
        }
      ],
      "name": "createDID",
      "outputs": [
        {
          "internalType": "address",
          "name": "controller",
          "type": "address"
        },
        {
          "internalType": "uint256",
          "name": "created",
          "type": "uint256"
        },
        {
          "internalType": "uint256",
          "name": "updated",
          "type": "uint256"
        },
        {
          "internalType": "string",
          "name": "didDoc",
          "type": "string"
        }
      ],
      "stateMutability": "nonpayable",
      "type": "function"
    },
    {
      "inputs": [
        {
          "internalType": "address",
          "name": "_id",
          "type": "address"
        }
      ],
      "name": "getDIDDoc",
      "outputs": [
        {
          "internalType": "string",
          "name": "",
          "type": "string"
        }
      ],
      "stateMutability": "view",
      "type": "function",
      "constant": true
    },
    {
      "inputs": [],
      "name": "getTotalNumberOfDIDs",
      "outputs": [
        {
          "internalType": "uint256",
          "name": "_totalDIDs",
          "type": "uint256"
        },
        {
          "internalType": "uint256",
          "name": "_activeDIDs",
          "type": "uint256"
        }
      ],
      "stateMutability": "view",
      "type": "function",
      "constant": true
    },
    {
      "inputs": [],
      "name": "getTotalNumberOfDeletedDIDs",
      "outputs": [
        {
          "internalType": "uint256",
          "name": "_deletedDID",
          "type": "uint256"
        }
      ],
      "stateMutability": "view",
      "type": "function",
      "constant": true
    },
    {
      "inputs": [
        {
          "internalType": "uint256",
          "name": "_index",
          "type": "uint256"
        }
      ],
      "name": "getDIDDOcByIndex",
      "outputs": [
        {
          "internalType": "string",
          "name": "",
          "type": "string"
        }
      ],
      "stateMutability": "view",
      "type": "function",
      "constant": true
    },
    {
      "inputs": [
        {
          "internalType": "address",
          "name": "_id",
          "type": "address"
        },
        {
          "internalType": "string",
          "name": "_doc",
          "type": "string"
        }
      ],
      "name": "updateDIDDoc",
      "outputs": [
        {
          "internalType": "address",
          "name": "controller",
          "type": "address"
        },
        {
          "internalType": "uint256",
          "name": "created",
          "type": "uint256"
        },
        {
          "internalType": "uint256",
          "name": "updated",
          "type": "uint256"
        },
        {
          "internalType": "string",
          "name": "didDoc",
          "type": "string"
        }
      ],
      "stateMutability": "nonpayable",
      "type": "function"
    },
    {
      "inputs": [
        {
          "internalType": "address",
          "name": "_id",
          "type": "address"
        }
      ],
      "name": "deleteDIDDoc",
      "outputs": [],
      "stateMutability": "nonpayable",
      "type": "function"
    }
  ],
  "bytecode": "0x60806040523480156200001157600080fd5b50600660009054906101000a900460ff161562000065576040517f08c379a00000000000000000000000000000000000000000000000000000000081526004016200005c906200015d565b60405180910390fd5b6001600660006101000a81548160ff02191690831515021790555033600160006101000a81548173ffffffffffffffffffffffffffffffffffffffff021916908373ffffffffffffffffffffffffffffffffffffffff1602179055506000808190555060006002819055506200017f565b600082825260208201905092915050565b7f436f6e747261637420696e7374616e63652068617320616c726561647920626560008201527f656e20696e697469616c697a6564000000000000000000000000000000000000602082015250565b600062000145602e83620000d6565b91506200015282620000e7565b604082019050919050565b60006020820190508181036000830152620001788162000136565b9050919050565b611947806200018f6000396000f3fe608060405234801561001057600080fd5b50600436106100935760003560e01c8063b779752711610066578063b779752714610126578063d4b9d14a14610156578063effc101714610189578063f2c30fb9146101b9578063f2fde38b146101d557610093565b8063167602d41461009857806363d61166146100b6578063893d20e8146100e9578063ae66a32614610107575b600080fd5b6100a0610205565b6040516100ad9190611010565b60405180910390f35b6100d060048036038101906100cb91906111e3565b61020f565b6040516100e094939291906112cd565b60405180910390f35b6100f1610624565b6040516100fe9190611319565b60405180910390f35b61010f61064e565b60405161011d929190611334565b60405180910390f35b610140600480360381019061013b919061135d565b61066c565b60405161014d919061138a565b60405180910390f35b610170600480360381019061016b91906111e3565b610740565b60405161018094939291906112cd565b60405180910390f35b6101a3600480360381019061019e91906113d8565b610ab1565b6040516101b0919061138a565b60405180910390f35b6101d360048036038101906101ce919061135d565b610bb8565b005b6101ef60048036038101906101ea919061135d565b610dd8565b6040516101fc919061138a565b60405180910390f35b6000600254905090565b6000806000606033600360008873ffffffffffffffffffffffffffffffffffffffff1673ffffffffffffffffffffffffffffffffffffffff16815260200190815260200160002060000160006101000a81548173ffffffffffffffffffffffffffffffffffffffff021916908373ffffffffffffffffffffffffffffffffffffffff16021790555042600360008873ffffffffffffffffffffffffffffffffffffffff1673ffffffffffffffffffffffffffffffffffffffff1681526020019081526020016000206001018190555042600360008873ffffffffffffffffffffffffffffffffffffffff1673ffffffffffffffffffffffffffffffffffffffff1681526020019081526020016000206002018190555084600360008873ffffffffffffffffffffffffffffffffffffffff1673ffffffffffffffffffffffffffffffffffffffff16815260200190815260200160002060030190816103749190611611565b5033600460008054815260200190815260200160002060006101000a81548173ffffffffffffffffffffffffffffffffffffffff021916908373ffffffffffffffffffffffffffffffffffffffff160217905550600054600560008873ffffffffffffffffffffffffffffffffffffffff1673ffffffffffffffffffffffffffffffffffffffff16815260200190815260200160002081905550600080815461041c90611712565b919050819055507f1b7934654ba536b6962955e057ce42885353bbaad8c605a5ce0678e632f28410868660405161045492919061175a565b60405180910390a1600360008773ffffffffffffffffffffffffffffffffffffffff1673ffffffffffffffffffffffffffffffffffffffff16815260200190815260200160002060000160009054906101000a900473ffffffffffffffffffffffffffffffffffffffff16600360008873ffffffffffffffffffffffffffffffffffffffff1673ffffffffffffffffffffffffffffffffffffffff16815260200190815260200160002060010154600360008973ffffffffffffffffffffffffffffffffffffffff1673ffffffffffffffffffffffffffffffffffffffff16815260200190815260200160002060020154600360008a73ffffffffffffffffffffffffffffffffffffffff1673ffffffffffffffffffffffffffffffffffffffff16815260200190815260200160002060030180805461059390611434565b80601f01602080910402602001604051908101604052809291908181526020018280546105bf90611434565b801561060c5780601f106105e15761010080835404028352916020019161060c565b820191906000526020600020905b8154815290600101906020018083116105ef57829003601f168201915b50505050509050935093509350935092959194509250565b6000600160009054906101000a900473ffffffffffffffffffffffffffffffffffffffff16905090565b600080600054600254600054610664919061178a565b915091509091565b6060600360008373ffffffffffffffffffffffffffffffffffffffff1673ffffffffffffffffffffffffffffffffffffffff16815260200190815260200160002060030180546106bb90611434565b80601f01602080910402602001604051908101604052809291908181526020018280546106e790611434565b80156107345780601f1061070957610100808354040283529160200191610734565b820191906000526020600020905b81548152906001019060200180831161071757829003601f168201915b50505050509050919050565b60008060006060853373ffffffffffffffffffffffffffffffffffffffff16600360008373ffffffffffffffffffffffffffffffffffffffff1673ffffffffffffffffffffffffffffffffffffffff16815260200190815260200160002060000160009054906101000a900473ffffffffffffffffffffffffffffffffffffffff1673ffffffffffffffffffffffffffffffffffffffff1614610818576040517f08c379a000000000000000000000000000000000000000000000000000000000815260040161080f90611830565b60405180910390fd5b85600360008973ffffffffffffffffffffffffffffffffffffffff1673ffffffffffffffffffffffffffffffffffffffff16815260200190815260200160002060030190816108679190611611565b5042600360008973ffffffffffffffffffffffffffffffffffffffff1673ffffffffffffffffffffffffffffffffffffffff168152602001908152602001600020600201819055507fa0016473004b22caf3cbe32658844f4dfe20b54f72612d0ea625cc07ca3a192b87876040516108e092919061175a565b60405180910390a1600360008873ffffffffffffffffffffffffffffffffffffffff1673ffffffffffffffffffffffffffffffffffffffff16815260200190815260200160002060000160009054906101000a900473ffffffffffffffffffffffffffffffffffffffff16600360008973ffffffffffffffffffffffffffffffffffffffff1673ffffffffffffffffffffffffffffffffffffffff16815260200190815260200160002060010154600360008a73ffffffffffffffffffffffffffffffffffffffff1673ffffffffffffffffffffffffffffffffffffffff16815260200190815260200160002060020154600360008b73ffffffffffffffffffffffffffffffffffffffff1673ffffffffffffffffffffffffffffffffffffffff168152602001908152602001600020600301808054610a1f90611434565b80601f0160208091040260200160405190810160405280929190818152602001828054610a4b90611434565b8015610a985780601f10610a6d57610100808354040283529160200191610a98565b820191906000526020600020905b815481529060010190602001808311610a7b57829003601f168201915b5050505050905094509450945094505092959194509250565b6060600360006004600085815260200190815260200160002060009054906101000a900473ffffffffffffffffffffffffffffffffffffffff1673ffffffffffffffffffffffffffffffffffffffff1673ffffffffffffffffffffffffffffffffffffffff1681526020019081526020016000206003018054610b3390611434565b80601f0160208091040260200160405190810160405280929190818152602001828054610b5f90611434565b8015610bac5780601f10610b8157610100808354040283529160200191610bac565b820191906000526020600020905b815481529060010190602001808311610b8f57829003601f168201915b50505050509050919050565b803373ffffffffffffffffffffffffffffffffffffffff16600360008373ffffffffffffffffffffffffffffffffffffffff1673ffffffffffffffffffffffffffffffffffffffff16815260200190815260200160002060000160009054906101000a900473ffffffffffffffffffffffffffffffffffffffff1673ffffffffffffffffffffffffffffffffffffffff1614610c89576040517f08c379a0000000000000000000000000000000000000000000000000000000008152600401610c8090611830565b60405180910390fd5b600360008373ffffffffffffffffffffffffffffffffffffffff1673ffffffffffffffffffffffffffffffffffffffff168152602001908152602001600020600080820160006101000a81549073ffffffffffffffffffffffffffffffffffffffff021916905560018201600090556002820160009055600382016000610d109190610f9a565b505060046000600560008573ffffffffffffffffffffffffffffffffffffffff1673ffffffffffffffffffffffffffffffffffffffff16815260200190815260200160002054815260200190815260200160002060006101000a81549073ffffffffffffffffffffffffffffffffffffffff0219169055600260008154610d9690611712565b919050819055507f48615d93df6fd25803abe2a52f9335bcfe034a086daa4e9d5c90ae9a2f7e5ef782604051610dcc9190611319565b60405180910390a15050565b6060600160009054906101000a900473ffffffffffffffffffffffffffffffffffffffff1673ffffffffffffffffffffffffffffffffffffffff163373ffffffffffffffffffffffffffffffffffffffff1614610e6a576040517f08c379a0000000000000000000000000000000000000000000000000000000008152600401610e619061189c565b60405180910390fd5b8173ffffffffffffffffffffffffffffffffffffffff16600160009054906101000a900473ffffffffffffffffffffffffffffffffffffffff1673ffffffffffffffffffffffffffffffffffffffff1614610f795781600160006101000a81548173ffffffffffffffffffffffffffffffffffffffff021916908373ffffffffffffffffffffffffffffffffffffffff1602179055507fcfaaa26691e16e66e73290fc725eee1a6b4e0e693a1640484937aac25ffb55a4600160009054906101000a900473ffffffffffffffffffffffffffffffffffffffff16604051610f519190611319565b60405180910390a16040518060600160405280602281526020016118bd602291399050610f95565b6040518060600160405280603381526020016118df6033913990505b919050565b508054610fa690611434565b6000825580601f10610fb85750610fd7565b601f016020900490600052602060002090810190610fd69190610fda565b5b50565b5b80821115610ff3576000816000905550600101610fdb565b5090565b6000819050919050565b61100a81610ff7565b82525050565b60006020820190506110256000830184611001565b92915050565b6000604051905090565b600080fd5b600080fd5b600073ffffffffffffffffffffffffffffffffffffffff82169050919050565b600061106a8261103f565b9050919050565b61107a8161105f565b811461108557600080fd5b50565b60008135905061109781611071565b92915050565b600080fd5b600080fd5b6000601f19601f8301169050919050565b7f4e487b7100000000000000000000000000000000000000000000000000000000600052604160045260246000fd5b6110f0826110a7565b810181811067ffffffffffffffff8211171561110f5761110e6110b8565b5b80604052505050565b600061112261102b565b905061112e82826110e7565b919050565b600067ffffffffffffffff82111561114e5761114d6110b8565b5b611157826110a7565b9050602081019050919050565b82818337600083830152505050565b600061118661118184611133565b611118565b9050828152602081018484840111156111a2576111a16110a2565b5b6111ad848285611164565b509392505050565b600082601f8301126111ca576111c961109d565b5b81356111da848260208601611173565b91505092915050565b600080604083850312156111fa576111f9611035565b5b600061120885828601611088565b925050602083013567ffffffffffffffff8111156112295761122861103a565b5b611235858286016111b5565b9150509250929050565b6112488161105f565b82525050565b600081519050919050565b600082825260208201905092915050565b60005b8381101561128857808201518184015260208101905061126d565b60008484015250505050565b600061129f8261124e565b6112a98185611259565b93506112b981856020860161126a565b6112c2816110a7565b840191505092915050565b60006080820190506112e2600083018761123f565b6112ef6020830186611001565b6112fc6040830185611001565b818103606083015261130e8184611294565b905095945050505050565b600060208201905061132e600083018461123f565b92915050565b60006040820190506113496000830185611001565b6113566020830184611001565b9392505050565b60006020828403121561137357611372611035565b5b600061138184828501611088565b91505092915050565b600060208201905081810360008301526113a48184611294565b905092915050565b6113b581610ff7565b81146113c057600080fd5b50565b6000813590506113d2816113ac565b92915050565b6000602082840312156113ee576113ed611035565b5b60006113fc848285016113c3565b91505092915050565b7f4e487b7100000000000000000000000000000000000000000000000000000000600052602260045260246000fd5b6000600282049050600182168061144c57607f821691505b60208210810361145f5761145e611405565b5b50919050565b60008190508160005260206000209050919050565b60006020601f8301049050919050565b600082821b905092915050565b6000600883026114c77fffffffffffffffffffffffffffffffffffffffffffffffffffffffffffffffff8261148a565b6114d1868361148a565b95508019841693508086168417925050509392505050565b6000819050919050565b600061150e61150961150484610ff7565b6114e9565b610ff7565b9050919050565b6000819050919050565b611528836114f3565b61153c61153482611515565b848454611497565b825550505050565b600090565b611551611544565b61155c81848461151f565b505050565b5b8181101561158057611575600082611549565b600181019050611562565b5050565b601f8211156115c55761159681611465565b61159f8461147a565b810160208510156115ae578190505b6115c26115ba8561147a565b830182611561565b50505b505050565b600082821c905092915050565b60006115e8600019846008026115ca565b1980831691505092915050565b600061160183836115d7565b9150826002028217905092915050565b61161a8261124e565b67ffffffffffffffff811115611633576116326110b8565b5b61163d8254611434565b611648828285611584565b600060209050601f83116001811461167b5760008415611669578287015190505b61167385826115f5565b8655506116db565b601f19841661168986611465565b60005b828110156116b15784890151825560018201915060208501945060208101905061168c565b868310156116ce57848901516116ca601f8916826115d7565b8355505b6001600288020188555050505b505050505050565b7f4e487b7100000000000000000000000000000000000000000000000000000000600052601160045260246000fd5b600061171d82610ff7565b91507fffffffffffffffffffffffffffffffffffffffffffffffffffffffffffffffff820361174f5761174e6116e3565b5b600182019050919050565b600060408201905061176f600083018561123f565b81810360208301526117818184611294565b90509392505050565b600061179582610ff7565b91506117a083610ff7565b92508282039050818111156117b8576117b76116e3565b5b92915050565b7f6d6573736167652073656e646572206973206e6f742074686520636f6e74726f60008201527f6c6c6572206f66207468652044494420446f6300000000000000000000000000602082015250565b600061181a603383611259565b9150611825826117be565b604082019050919050565b600060208201905081810360008301526118498161180d565b9050919050565b7f6d6573736167652073656e646572206973206e6f7420746865206f776e657200600082015250565b6000611886601f83611259565b915061189182611850565b602082019050919050565b600060208201905081810360008301526118b581611879565b905091905056fe4f776e657273686970207472616e73666572726564207375636365737366756c6c794f776e6572736869702063616e6e6f74206265207472616e7366657272656420746f207468652073616d65206163636f756e74a26469706673582212201d4bc7512c93f7404e06e9f2e2a691d068e8eff36b1178e921ebe4d9545cc75264736f6c63430008100033",
  "immutableReferences": {},
  "source": "//SPDX-License-Identifier: Apache 2.0\npragma solidity ^0.8.16;\n\n/**\n *@title FVMDidRegistry\n *@dev Smart Contract for FVM DID Method\n */\ncontract FvmDidRegistry {\n    uint256 totalDIDs;\n    address owner;\n    uint256 deletedDID;\n    struct PolyDID {\n        address controller;\n        uint256 created;\n        uint256 updated;\n        string didDoc;\n    }\n\n    modifier onlyController(address _id) {\n        require(\n            polyDIDs[_id].controller == msg.sender,\n            \"message sender is not the controller of the DID Doc\"\n        );\n        _;\n    }\n    mapping(address => PolyDID) polyDIDs;\n    mapping(uint256 => address) activeDIDs;\n    mapping(address => uint256) activeAddress;\n    event DIDCreated(address id, string doc);\n    event DIDUpdated(address id, string doc);\n    event DIDDeleted(address id);\n    event TransferOwnership(address newOwner);\n    bool private initialized;\n\n    /**\n     *@dev initializes the ownership of contract\n     **/\n\n    constructor() {\n        require(!initialized, \"Contract instance has already been initialized\");\n        initialized = true;\n        owner = msg.sender;\n        totalDIDs = 0;\n        deletedDID = 0;\n    }\n\n    modifier onlyOwner() {\n        require(msg.sender == owner, \"message sender is not the owner\");\n        _;\n    }\n\n    /**\n     *@dev transfer the ownership of contract\n     *@param _newOwner - Address of the new owner to whom the ownership needs to be passed\n     **/\n\n    function transferOwnership(address _newOwner)\n        public\n        onlyOwner\n        returns (string memory)\n    {\n        if (owner != _newOwner) {\n            owner = _newOwner;\n            emit TransferOwnership(owner);\n            return (\"Ownership transferred successfully\");\n        } else {\n            return (\"Ownership cannot be transferred to the same account\");\n        }\n    }\n\n    /**\n     *@dev Reads contract owner from chain\n     */\n\n    function getOwner() public view returns (address _owner) {\n        return owner;\n    }\n\n    /**\n     *@dev Register a new DID\n     *@param _id - Address that will refer the DID doc\n     *@param _doc - A string object that holds the DID Doc\n     */\n\n    function createDID(address _id, string memory _doc)\n        public\n        returns (\n            address controller,\n            uint256 created,\n            uint256 updated,\n            string memory didDoc\n        )\n    {\n        polyDIDs[_id].controller = msg.sender;\n        polyDIDs[_id].created = block.timestamp;\n        polyDIDs[_id].updated = block.timestamp;\n        polyDIDs[_id].didDoc = _doc;\n        activeDIDs[totalDIDs] = msg.sender;\n        activeAddress[_id] = totalDIDs;\n        ++totalDIDs;\n        emit DIDCreated(_id, _doc);\n        return (\n            polyDIDs[_id].controller,\n            polyDIDs[_id].created,\n            polyDIDs[_id].updated,\n            polyDIDs[_id].didDoc\n        );\n    }\n\n    /**\n     *@dev Reads DID Doc from Chain\n     *@param _id - Address that refers to the DID doc position\n     */\n\n    function getDIDDoc(address _id) public view returns (string memory) {\n        return polyDIDs[_id].didDoc;\n    }\n\n    /**\n     *@dev Reads total number of DIDs and total number of active DIDs from Chain\n     */\n\n    function getTotalNumberOfDIDs()\n        public\n        view\n        returns (uint256 _totalDIDs, uint256 _activeDIDs)\n    {\n        return (totalDIDs, (totalDIDs - deletedDID));\n    }\n\n    /**\n     *@dev Reads total number of DIDs deleted from Chain\n     */\n\n    function getTotalNumberOfDeletedDIDs()\n        public\n        view\n        returns (uint256 _deletedDID)\n    {\n        return deletedDID;\n    }\n\n    /**\n     *@dev Reads one DID at a time from Chain based on index\n     *@param _index - Uint256 type variable that refers to the DID position\n     *@return _did - returns the DID Doc assciated with the index. Returns null if the DID Doc is deleted.\n     */\n\n    function getDIDDOcByIndex(uint256 _index)\n        public\n        view\n        returns (string memory)\n    {\n        return polyDIDs[activeDIDs[_index]].didDoc;\n    }\n\n    /**\n     *@dev To Update the DID doc\n     *@param _id - Address that refers to the DID doc\n     *@param _doc - A String that holds the DID doc\n     */\n\n    function updateDIDDoc(address _id, string memory _doc)\n        public\n        onlyController(_id)\n        returns (\n            address controller,\n            uint256 created,\n            uint256 updated,\n            string memory didDoc\n        )\n    {\n        polyDIDs[_id].didDoc = _doc;\n        polyDIDs[_id].updated = block.timestamp;\n        emit DIDUpdated(_id, _doc);\n        return (\n            polyDIDs[_id].controller,\n            polyDIDs[_id].created,\n            polyDIDs[_id].updated,\n            polyDIDs[_id].didDoc\n        );\n    }\n\n    /**\n     *@dev To delete a DID from chain\n     *@param _id - Address that refers to the DID doc that need to be deleted\n     */\n\n    function deleteDIDDoc(address _id) public onlyController(_id) {\n        delete polyDIDs[_id];\n        delete activeDIDs[activeAddress[_id]];\n        ++deletedDID;\n        emit DIDDeleted(_id);\n    }\n}\n",
  "sourcePath": "/Users/amanyadav/eth_india/fvm-did-registry-contract/contracts/FvmDidRegistry.sol",
  "compiler": {
    "name": "solc",
    "version": "0.8.16+commit.07a7930e.Emscripten.clang"
  },
  "schemaVersion": "3.4.11",
  "updatedAt": "2023-02-03T21:53:03.968Z",
  "networkType": "ethereum",
  "devdoc": {
    "details": "Smart Contract for FVM DID Method",
    "kind": "dev",
    "methods": {
      "constructor": {
        "details": "initializes the ownership of contract*"
      },
      "createDID(address,string)": {
        "details": "Register a new DID",
        "params": {
          "_doc": "- A string object that holds the DID Doc",
          "_id": "- Address that will refer the DID doc"
        }
      },
      "deleteDIDDoc(address)": {
        "details": "To delete a DID from chain",
        "params": {
          "_id": "- Address that refers to the DID doc that need to be deleted"
        }
      },
      "getDIDDOcByIndex(uint256)": {
        "details": "Reads one DID at a time from Chain based on index",
        "params": {
          "_index": "- Uint256 type variable that refers to the DID position"
        },
        "returns": {
          "_0": "_did - returns the DID Doc assciated with the index. Returns null if the DID Doc is deleted."
        }
      },
      "getDIDDoc(address)": {
        "details": "Reads DID Doc from Chain",
        "params": {
          "_id": "- Address that refers to the DID doc position"
        }
      },
      "getOwner()": {
        "details": "Reads contract owner from chain"
      },
      "getTotalNumberOfDIDs()": {
        "details": "Reads total number of DIDs and total number of active DIDs from Chain"
      },
      "getTotalNumberOfDeletedDIDs()": {
        "details": "Reads total number of DIDs deleted from Chain"
      },
      "transferOwnership(address)": {
        "details": "transfer the ownership of contract",
        "params": {
          "_newOwner": "- Address of the new owner to whom the ownership needs to be passed*"
        }
      },
      "updateDIDDoc(address,string)": {
        "details": "To Update the DID doc",
        "params": {
          "_doc": "- A String that holds the DID doc",
          "_id": "- Address that refers to the DID doc"
        }
      }
    },
    "title": "FVMDidRegistry",
    "version": 1
  },
  "userdoc": {
    "kind": "user",
    "methods": {},
    "version": 1
  }
}